{
  "_format": "hh-sol-artifact-1",
  "contractName": "Poolpi",
  "sourceName": "contracts/Poolpi.sol",
  "abi": [
    {
      "inputs": [
        {
          "internalType": "uint256",
          "name": "startDate",
          "type": "uint256"
        },
        {
          "internalType": "uint256",
          "name": "expirationDate",
          "type": "uint256"
        },
        {
          "internalType": "uint256",
          "name": "deathDate",
          "type": "uint256"
        },
        {
          "internalType": "contract IERC20",
          "name": "usdc",
          "type": "address"
        },
        {
          "internalType": "uint256",
          "name": "borrowSPR",
          "type": "uint256"
        },
        {
          "internalType": "contract IERC721[]",
          "name": "collections",
          "type": "address[]"
        },
        {
          "internalType": "uint256[]",
          "name": "_assetPrices",
          "type": "uint256[]"
        }
      ],
      "stateMutability": "nonpayable",
      "type": "constructor"
    },
    {
      "inputs": [],
      "name": "AuctionNotYetStarted",
      "type": "error"
    },
    {
      "inputs": [],
      "name": "BorrowsAndRepaysAreClosed",
      "type": "error"
    },
    {
      "inputs": [
        {
          "internalType": "contract IERC721",
          "name": "collection",
          "type": "address"
        }
      ],
      "name": "CollectionNotWhitelisted",
      "type": "error"
    },
    {
      "inputs": [],
      "name": "LiquidityNotYetUnlocked",
      "type": "error"
    },
    {
      "inputs": [
        {
          "internalType": "address",
          "name": "sender",
          "type": "address"
        }
      ],
      "name": "SenderIsNotTheBorrower",
      "type": "error"
    },
    {
      "inputs": [],
      "name": "SuppliesAreClosed",
      "type": "error"
    },
    {
      "anonymous": false,
      "inputs": [
        {
          "indexed": true,
          "internalType": "address",
          "name": "borrower",
          "type": "address"
        },
        {
          "indexed": false,
          "internalType": "uint256",
          "name": "loanId",
          "type": "uint256"
        },
        {
          "indexed": false,
          "internalType": "uint256",
          "name": "amount",
          "type": "uint256"
        }
      ],
      "name": "Borrowed",
      "type": "event"
    },
    {
      "anonymous": false,
      "inputs": [
        {
          "indexed": true,
          "internalType": "uint256",
          "name": "loanId",
          "type": "uint256"
        },
        {
          "indexed": false,
          "internalType": "uint256",
          "name": "price",
          "type": "uint256"
        }
      ],
      "name": "Bought",
      "type": "event"
    },
    {
      "anonymous": false,
      "inputs": [
        {
          "indexed": true,
          "internalType": "uint256",
          "name": "loanId",
          "type": "uint256"
        },
        {
          "indexed": false,
          "internalType": "uint256",
          "name": "amount",
          "type": "uint256"
        }
      ],
      "name": "Repaid",
      "type": "event"
    },
    {
      "anonymous": false,
      "inputs": [
        {
          "indexed": true,
          "internalType": "address",
          "name": "supplier",
          "type": "address"
        },
        {
          "indexed": false,
          "internalType": "uint256",
          "name": "amount",
          "type": "uint256"
        }
      ],
      "name": "Supplied",
      "type": "event"
    },
    {
      "anonymous": false,
      "inputs": [
        {
          "indexed": true,
          "internalType": "address",
          "name": "supplier",
          "type": "address"
        },
        {
          "indexed": false,
          "internalType": "uint256",
          "name": "amount",
          "type": "uint256"
        }
      ],
      "name": "Withdrew",
      "type": "event"
    },
    {
      "inputs": [],
      "name": "BORROW_SPR",
      "outputs": [
        {
          "internalType": "uint256",
          "name": "",
          "type": "uint256"
        }
      ],
      "stateMutability": "view",
      "type": "function"
    },
    {
      "inputs": [],
      "name": "DEATH_DATE",
      "outputs": [
        {
          "internalType": "uint256",
          "name": "",
          "type": "uint256"
        }
      ],
      "stateMutability": "view",
      "type": "function"
    },
    {
      "inputs": [],
      "name": "EXPIRATION_DATE",
      "outputs": [
        {
          "internalType": "uint256",
          "name": "",
          "type": "uint256"
        }
      ],
      "stateMutability": "view",
      "type": "function"
    },
    {
      "inputs": [],
      "name": "START_DATE",
      "outputs": [
        {
          "internalType": "uint256",
          "name": "",
          "type": "uint256"
        }
      ],
      "stateMutability": "view",
      "type": "function"
    },
    {
      "inputs": [
        {
          "internalType": "contract IERC721",
          "name": "",
          "type": "address"
        }
      ],
      "name": "assetPrice",
      "outputs": [
        {
          "internalType": "uint256",
          "name": "",
          "type": "uint256"
        }
      ],
      "stateMutability": "view",
      "type": "function"
    },
    {
      "inputs": [
        {
          "internalType": "contract IERC721",
          "name": "collection",
          "type": "address"
        },
        {
          "internalType": "uint256",
          "name": "tokenId",
          "type": "uint256"
        }
      ],
      "name": "borrow",
      "outputs": [],
      "stateMutability": "nonpayable",
      "type": "function"
    },
    {
      "inputs": [
        {
          "internalType": "uint256",
          "name": "loanId",
          "type": "uint256"
        }
      ],
      "name": "buy",
      "outputs": [],
      "stateMutability": "nonpayable",
      "type": "function"
    },
    {
      "inputs": [
        {
          "internalType": "uint256",
          "name": "",
          "type": "uint256"
        }
      ],
      "name": "loan",
      "outputs": [
        {
          "internalType": "contract IERC721",
          "name": "collection",
          "type": "address"
        },
        {
          "internalType": "uint256",
          "name": "tokenId",
          "type": "uint256"
        },
        {
          "internalType": "uint256",
          "name": "loanDate",
          "type": "uint256"
        },
        {
          "internalType": "uint256",
          "name": "amount",
          "type": "uint256"
        },
        {
          "internalType": "address",
          "name": "borrowedBy",
          "type": "address"
        }
      ],
      "stateMutability": "view",
      "type": "function"
    },
    {
      "inputs": [
        {
          "internalType": "uint256",
          "name": "loanId",
          "type": "uint256"
        }
      ],
      "name": "repay",
      "outputs": [],
      "stateMutability": "nonpayable",
      "type": "function"
    },
    {
      "inputs": [
        {
          "internalType": "uint256",
          "name": "amount",
          "type": "uint256"
        }
      ],
      "name": "supply",
      "outputs": [],
      "stateMutability": "nonpayable",
      "type": "function"
    },
    {
      "inputs": [],
      "name": "withdraw",
      "outputs": [],
      "stateMutability": "nonpayable",
      "type": "function"
    }
  ],
  "bytecode": "0x6101206040523480156200001257600080fd5b5060405162001e9838038062001e988339818101604052810190620000389190620004b8565b86421080156200004757508587105b80156200005357508486105b6200005d57600080fd5b86608081815250508560a081815250508460c081815250508373ffffffffffffffffffffffffffffffffffffffff166101008173ffffffffffffffffffffffffffffffffffffffff16815250508260e0818152505060005b82518110156200015257818181518110620000d557620000d4620005a9565b5b6020026020010151600080858481518110620000f657620000f5620005a9565b5b602002602001015173ffffffffffffffffffffffffffffffffffffffff1673ffffffffffffffffffffffffffffffffffffffff168152602001908152602001600020819055508080620001499062000607565b915050620000b5565b505050505050505062000655565b6000604051905090565b600080fd5b600080fd5b6000819050919050565b620001898162000174565b81146200019557600080fd5b50565b600081519050620001a9816200017e565b92915050565b600073ffffffffffffffffffffffffffffffffffffffff82169050919050565b6000620001dc82620001af565b9050919050565b6000620001f082620001cf565b9050919050565b6200020281620001e3565b81146200020e57600080fd5b50565b6000815190506200022281620001f7565b92915050565b600080fd5b6000601f19601f8301169050919050565b7f4e487b7100000000000000000000000000000000000000000000000000000000600052604160045260246000fd5b62000278826200022d565b810181811067ffffffffffffffff821117156200029a57620002996200023e565b5b80604052505050565b6000620002af62000160565b9050620002bd82826200026d565b919050565b600067ffffffffffffffff821115620002e057620002df6200023e565b5b602082029050602081019050919050565b600080fd5b60006200030382620001cf565b9050919050565b6200031581620002f6565b81146200032157600080fd5b50565b60008151905062000335816200030a565b92915050565b6000620003526200034c84620002c2565b620002a3565b90508083825260208201905060208402830185811115620003785762000377620002f1565b5b835b81811015620003a5578062000390888262000324565b8452602084019350506020810190506200037a565b5050509392505050565b600082601f830112620003c757620003c662000228565b5b8151620003d98482602086016200033b565b91505092915050565b600067ffffffffffffffff8211156200040057620003ff6200023e565b5b602082029050602081019050919050565b6000620004286200042284620003e2565b620002a3565b905080838252602082019050602084028301858111156200044e576200044d620002f1565b5b835b818110156200047b578062000466888262000198565b84526020840193505060208101905062000450565b5050509392505050565b600082601f8301126200049d576200049c62000228565b5b8151620004af84826020860162000411565b91505092915050565b600080600080600080600060e0888a031215620004da57620004d96200016a565b5b6000620004ea8a828b0162000198565b9750506020620004fd8a828b0162000198565b9650506040620005108a828b0162000198565b9550506060620005238a828b0162000211565b9450506080620005368a828b0162000198565b93505060a088015167ffffffffffffffff8111156200055a57620005596200016f565b5b620005688a828b01620003af565b92505060c088015167ffffffffffffffff8111156200058c576200058b6200016f565b5b6200059a8a828b0162000485565b91505092959891949750929550565b7f4e487b7100000000000000000000000000000000000000000000000000000000600052603260045260246000fd5b7f4e487b7100000000000000000000000000000000000000000000000000000000600052601160045260246000fd5b6000620006148262000174565b91507fffffffffffffffffffffffffffffffffffffffffffffffffffffffffffffffff8214156200064a5762000649620005d8565b5b600182019050919050565b60805160a05160c05160e051610100516117956200070360003960008181610283015281816105bf0152818161086601528181610d0e0152611044015260008181610e350152611209015260008181610206015281816107940152610f1e0152600081816105000152818161099b01528181610a6c01528181610b7c01528181610e7101528181610ecd0152610efd01526000818161022a015281816107700152610a4301526117956000f3fe608060405234801561001057600080fd5b50600436106100a95760003560e01c80633ccfd60b116100715780633ccfd60b146101565780633e6eb0c4146101605780634b8a35291461017e5780634d2c0c4f1461019a578063b883b058146101b8578063d96a094a146101e8576100a9565b8063196b8f71146100ae57806335403023146100cc578063365a5306146100e8578063371fd8e61461011c578063372c653314610138575b600080fd5b6100b6610204565b6040516100c39190611268565b60405180910390f35b6100e660048036038101906100e191906112b4565b610228565b005b61010260048036038101906100fd91906112b4565b6103e2565b604051610113959493929190611381565b60405180910390f35b610136600480360381019061013191906112b4565b610458565b005b61014061076e565b60405161014d9190611268565b60405180910390f35b61015e610792565b005b610168610999565b6040516101759190611268565b60405180910390f35b61019860048036038101906101939190611412565b6109bd565b005b6101a2610e33565b6040516101af9190611268565b60405180910390f35b6101d260048036038101906101cd9190611452565b610e57565b6040516101df9190611268565b60405180910390f35b61020260048036038101906101fd91906112b4565b610e6f565b005b7f000000000000000000000000000000000000000000000000000000000000000081565b7f00000000000000000000000000000000000000000000000000000000000000004210610281576040517f5b6aa53700000000000000000000000000000000000000000000000000000000815260040160405180910390fd5b7f000000000000000000000000000000000000000000000000000000000000000073ffffffffffffffffffffffffffffffffffffffff166323b872dd3330846040518463ffffffff1660e01b81526004016102de9392919061147f565b6020604051808303816000875af11580156102fd573d6000803e3d6000fd5b505050506040513d601f19601f8201168201806040525081019061032191906114ee565b5080600560003373ffffffffffffffffffffffffffffffffffffffff1673ffffffffffffffffffffffffffffffffffffffff1681526020019081526020016000206000828254610371919061154a565b92505081905550806001600082825461038a919061154a565b925050819055503373ffffffffffffffffffffffffffffffffffffffff167f6473c9f7da8f23a3d810f05b3e8fb3945f0ad17deadcc09e302cdf5d58e48fe7826040516103d79190611268565b60405180910390a250565b60066020528060005260406000206000915090508060000160009054906101000a900473ffffffffffffffffffffffffffffffffffffffff16908060010154908060020154908060030154908060040160009054906101000a900473ffffffffffffffffffffffffffffffffffffffff16905085565b3373ffffffffffffffffffffffffffffffffffffffff166006600083815260200190815260200160002060040160009054906101000a900473ffffffffffffffffffffffffffffffffffffffff1673ffffffffffffffffffffffffffffffffffffffff16146104fe57336040517fe3c768680000000000000000000000000000000000000000000000000000000081526004016104f591906115a0565b60405180910390fd5b7f00000000000000000000000000000000000000000000000000000000000000004210610557576040517fbc960fd400000000000000000000000000000000000000000000000000000000815260040160405180910390fd5b600061059a600660008481526020019081526020016000206003015460066000858152602001908152602001600020600201544261059591906115bb565b6111f7565b60066000848152602001908152602001600020600301546105bb919061154a565b90507f000000000000000000000000000000000000000000000000000000000000000073ffffffffffffffffffffffffffffffffffffffff166323b872dd3330846040518463ffffffff1660e01b815260040161061a9392919061147f565b6020604051808303816000875af1158015610639573d6000803e3d6000fd5b505050506040513d601f19601f8201168201806040525081019061065d91906114ee565b506006600083815260200190815260200160002060000160009054906101000a900473ffffffffffffffffffffffffffffffffffffffff1673ffffffffffffffffffffffffffffffffffffffff166323b872dd303360066000878152602001908152602001600020600101546040518463ffffffff1660e01b81526004016106e79392919061147f565b600060405180830381600087803b15801561070157600080fd5b505af1158015610715573d6000803e3d6000fd5b50505050806003600082825461072b919061154a565b92505081905550817f81472a96709c8315c82af40d41ef624a642ad53864b097e53af675593bb4e035826040516107629190611268565b60405180910390a25050565b7f000000000000000000000000000000000000000000000000000000000000000081565b7f00000000000000000000000000000000000000000000000000000000000000004210156107ec576040517faf06f85800000000000000000000000000000000000000000000000000000000815260040160405180910390fd5b6000600154600254600354600154610804919061154a565b61080e91906115bb565b600560003373ffffffffffffffffffffffffffffffffffffffff1673ffffffffffffffffffffffffffffffffffffffff1681526020019081526020016000205461085891906115ef565b6108629190611678565b90507f000000000000000000000000000000000000000000000000000000000000000073ffffffffffffffffffffffffffffffffffffffff1663a9059cbb33836040518363ffffffff1660e01b81526004016108bf9291906116a9565b6020604051808303816000875af11580156108de573d6000803e3d6000fd5b505050506040513d601f19601f8201168201806040525081019061090291906114ee565b506000600560003373ffffffffffffffffffffffffffffffffffffffff1673ffffffffffffffffffffffffffffffffffffffff168152602001908152602001600020819055503373ffffffffffffffffffffffffffffffffffffffff167fb244b9a17ad633c6e83b7983ee04320484956a68ddbe96a0b70dfca1cf19d7238260405161098e9190611268565b60405180910390a250565b7f000000000000000000000000000000000000000000000000000000000000000081565b60008060008473ffffffffffffffffffffffffffffffffffffffff1673ffffffffffffffffffffffffffffffffffffffff168152602001908152602001600020541415610a4157816040517fd76f0d44000000000000000000000000000000000000000000000000000000008152600401610a3891906116d2565b60405180910390fd5b7f0000000000000000000000000000000000000000000000000000000000000000421080610a8f57507f00000000000000000000000000000000000000000000000000000000000000004210155b15610ac6576040517fbc960fd400000000000000000000000000000000000000000000000000000000815260040160405180910390fd5b8173ffffffffffffffffffffffffffffffffffffffff166323b872dd3330846040518463ffffffff1660e01b8152600401610b039392919061147f565b600060405180830381600087803b158015610b1d57600080fd5b505af1158015610b31573d6000803e3d6000fd5b505050506000610baa6000808573ffffffffffffffffffffffffffffffffffffffff1673ffffffffffffffffffffffffffffffffffffffff16815260200190815260200160002054427f0000000000000000000000000000000000000000000000000000000000000000610ba591906115bb565b6111f7565b6000808573ffffffffffffffffffffffffffffffffffffffff1673ffffffffffffffffffffffffffffffffffffffff16815260200190815260200160002054610bf391906115bb565b90506040518060a001604052808473ffffffffffffffffffffffffffffffffffffffff1681526020018381526020014281526020018281526020013373ffffffffffffffffffffffffffffffffffffffff1681525060066000600454815260200190815260200160002060008201518160000160006101000a81548173ffffffffffffffffffffffffffffffffffffffff021916908373ffffffffffffffffffffffffffffffffffffffff16021790555060208201518160010155604082015181600201556060820151816003015560808201518160040160006101000a81548173ffffffffffffffffffffffffffffffffffffffff021916908373ffffffffffffffffffffffffffffffffffffffff1602179055509050507f000000000000000000000000000000000000000000000000000000000000000073ffffffffffffffffffffffffffffffffffffffff1663a9059cbb33836040518363ffffffff1660e01b8152600401610d679291906116a9565b6020604051808303816000875af1158015610d86573d6000803e3d6000fd5b505050506040513d601f19601f82011682018060405250810190610daa91906114ee565b508060026000828254610dbd919061154a565b925050819055503373ffffffffffffffffffffffffffffffffffffffff167feae9cfbc77fdd40ca899f36b608256063b2bc9d8178b0220f7ad513e178d673060045483604051610e0e9291906116ed565b60405180910390a260046000815480929190610e2990611716565b9190505550505050565b7f000000000000000000000000000000000000000000000000000000000000000081565b60006020528060005260406000206000915090505481565b7f0000000000000000000000000000000000000000000000000000000000000000421015610ec9576040517fd91781b900000000000000000000000000000000000000000000000000000000815260040160405180910390fd5b60007f000000000000000000000000000000000000000000000000000000000000000042610ef791906115bb565b905060007f00000000000000000000000000000000000000000000000000000000000000007f0000000000000000000000000000000000000000000000000000000000000000610f4791906115bb565b90506000600260036000806006600089815260200190815260200160002060000160009054906101000a900473ffffffffffffffffffffffffffffffffffffffff1673ffffffffffffffffffffffffffffffffffffffff1673ffffffffffffffffffffffffffffffffffffffff16815260200190815260200160002054610fce91906115ef565b610fd89190611678565b905060006b033b2e3c9fd0803ce80000008385846b033b2e3c9fd0803ce800000061100391906115ef565b61100d91906115ef565b6110179190611678565b6110219190611678565b90506000828210611033576000611040565b818361103f91906115bb565b5b90507f000000000000000000000000000000000000000000000000000000000000000073ffffffffffffffffffffffffffffffffffffffff166323b872dd3330846040518463ffffffff1660e01b815260040161109f9392919061147f565b6020604051808303816000875af11580156110be573d6000803e3d6000fd5b505050506040513d601f19601f820116820180604052508101906110e291906114ee565b5080600360008282546110f5919061154a565b925050819055506006600087815260200190815260200160002060000160009054906101000a900473ffffffffffffffffffffffffffffffffffffffff1673ffffffffffffffffffffffffffffffffffffffff166323b872dd3033600660008b8152602001908152602001600020600101546040518463ffffffff1660e01b81526004016111859392919061147f565b600060405180830381600087803b15801561119f57600080fd5b505af11580156111b3573d6000803e3d6000fd5b50505050857f3ccb2ab6980b218b1dd4974b07365cd90a191e170c611da46262fecc208bd661826040516111e79190611268565b60405180910390a2505050505050565b60006b033b2e3c9fd0803ce8000000837f00000000000000000000000000000000000000000000000000000000000000008461123391906115ef565b61123d91906115ef565b6112479190611678565b905092915050565b6000819050919050565b6112628161124f565b82525050565b600060208201905061127d6000830184611259565b92915050565b600080fd5b6112918161124f565b811461129c57600080fd5b50565b6000813590506112ae81611288565b92915050565b6000602082840312156112ca576112c9611283565b5b60006112d88482850161129f565b91505092915050565b600073ffffffffffffffffffffffffffffffffffffffff82169050919050565b6000819050919050565b600061132661132161131c846112e1565b611301565b6112e1565b9050919050565b60006113388261130b565b9050919050565b600061134a8261132d565b9050919050565b61135a8161133f565b82525050565b600061136b826112e1565b9050919050565b61137b81611360565b82525050565b600060a0820190506113966000830188611351565b6113a36020830187611259565b6113b06040830186611259565b6113bd6060830185611259565b6113ca6080830184611372565b9695505050505050565b60006113df82611360565b9050919050565b6113ef816113d4565b81146113fa57600080fd5b50565b60008135905061140c816113e6565b92915050565b6000806040838503121561142957611428611283565b5b6000611437858286016113fd565b92505060206114488582860161129f565b9150509250929050565b60006020828403121561146857611467611283565b5b6000611476848285016113fd565b91505092915050565b60006060820190506114946000830186611372565b6114a16020830185611372565b6114ae6040830184611259565b949350505050565b60008115159050919050565b6114cb816114b6565b81146114d657600080fd5b50565b6000815190506114e8816114c2565b92915050565b60006020828403121561150457611503611283565b5b6000611512848285016114d9565b91505092915050565b7f4e487b7100000000000000000000000000000000000000000000000000000000600052601160045260246000fd5b60006115558261124f565b91506115608361124f565b9250827fffffffffffffffffffffffffffffffffffffffffffffffffffffffffffffffff038211156115955761159461151b565b5b828201905092915050565b60006020820190506115b56000830184611372565b92915050565b60006115c68261124f565b91506115d18361124f565b9250828210156115e4576115e361151b565b5b828203905092915050565b60006115fa8261124f565b91506116058361124f565b9250817fffffffffffffffffffffffffffffffffffffffffffffffffffffffffffffffff048311821515161561163e5761163d61151b565b5b828202905092915050565b7f4e487b7100000000000000000000000000000000000000000000000000000000600052601260045260246000fd5b60006116838261124f565b915061168e8361124f565b92508261169e5761169d611649565b5b828204905092915050565b60006040820190506116be6000830185611372565b6116cb6020830184611259565b9392505050565b60006020820190506116e76000830184611351565b92915050565b60006040820190506117026000830185611259565b61170f6020830184611259565b9392505050565b60006117218261124f565b91507fffffffffffffffffffffffffffffffffffffffffffffffffffffffffffffffff8214156117545761175361151b565b5b60018201905091905056fea26469706673582212203d63a95a4d5f01edeabbaaa044a2501ddd217dc1b66bad6d84dccb778652d98964736f6c634300080b0033",
  "linkReferences": {},
  "deployedLinkReferences": {}
}